{
  "_format": "hh-sol-artifact-1",
  "contractName": "NftMarketplace",
  "sourceName": "contracts/NftMarketplace.sol",
  "abi": [
    {
      "inputs": [
        {
          "internalType": "address",
          "name": "NFTAddress",
          "type": "address"
        },
        {
          "internalType": "uint256",
          "name": "tokenId",
          "type": "uint256"
        }
      ],
      "name": "NftMarketplace_AlreadyListed",
      "type": "error"
    },
    {
      "inputs": [],
      "name": "NftMarketplace_IsNotOwner",
      "type": "error"
    },
    {
      "inputs": [],
      "name": "NftMarketplace_NoProceedToWithdraw",
      "type": "error"
    },
    {
      "inputs": [],
      "name": "NftMarketplace_NotApprovedForMarketplace",
      "type": "error"
    },
    {
      "inputs": [
        {
          "internalType": "address",
          "name": "NFTaddress",
          "type": "address"
        },
        {
          "internalType": "uint256",
          "name": "tokenId",
          "type": "uint256"
        }
      ],
      "name": "NftMarketplace_NotListed",
      "type": "error"
    },
    {
      "inputs": [],
      "name": "NftMarketplace_PriceMustBeAboveZero",
      "type": "error"
    },
    {
      "inputs": [
        {
          "internalType": "address",
          "name": "NFTaddress",
          "type": "address"
        },
        {
          "internalType": "uint256",
          "name": "tokenId",
          "type": "uint256"
        },
        {
          "internalType": "uint256",
          "name": "price",
          "type": "uint256"
        }
      ],
      "name": "NftMarketplace_PriceNotMet",
      "type": "error"
    },
    {
      "inputs": [],
      "name": "NftMarketplace_TransferFaied",
      "type": "error"
    },
    {
      "anonymous": false,
      "inputs": [
        {
          "indexed": true,
          "internalType": "address",
          "name": "buyer",
          "type": "address"
        },
        {
          "indexed": true,
          "internalType": "address",
          "name": "NFTAddress",
          "type": "address"
        },
        {
          "indexed": false,
          "internalType": "uint256",
          "name": "tokenId",
          "type": "uint256"
        },
        {
          "indexed": false,
          "internalType": "uint256",
          "name": "price",
          "type": "uint256"
        }
      ],
      "name": "ItemBought",
      "type": "event"
    },
    {
      "anonymous": false,
      "inputs": [
        {
          "indexed": true,
          "internalType": "address",
          "name": "seller",
          "type": "address"
        },
        {
          "indexed": true,
          "internalType": "address",
          "name": "NFTAddress",
          "type": "address"
        },
        {
          "indexed": false,
          "internalType": "uint256",
          "name": "tokenId",
          "type": "uint256"
        }
      ],
      "name": "ItemCanceled",
      "type": "event"
    },
    {
      "anonymous": false,
      "inputs": [
        {
          "indexed": true,
          "internalType": "address",
          "name": "seller",
          "type": "address"
        },
        {
          "indexed": true,
          "internalType": "address",
          "name": "NFTAddress",
          "type": "address"
        },
        {
          "indexed": false,
          "internalType": "uint256",
          "name": "tokenId",
          "type": "uint256"
        },
        {
          "indexed": false,
          "internalType": "uint256",
          "name": "price",
          "type": "uint256"
        }
      ],
      "name": "ItemListed",
      "type": "event"
    },
    {
      "inputs": [
        {
          "internalType": "address",
          "name": "NFTaddress",
          "type": "address"
        },
        {
          "internalType": "uint256",
          "name": "tokenId",
          "type": "uint256"
        }
      ],
      "name": "buyItem",
      "outputs": [],
      "stateMutability": "payable",
      "type": "function"
    },
    {
      "inputs": [
        {
          "internalType": "address",
          "name": "NFTaddress",
          "type": "address"
        },
        {
          "internalType": "uint256",
          "name": "tokenId",
          "type": "uint256"
        }
      ],
      "name": "cancelListing",
      "outputs": [],
      "stateMutability": "nonpayable",
      "type": "function"
    },
    {
      "inputs": [
        {
          "internalType": "address",
          "name": "NFTaddress",
          "type": "address"
        },
        {
          "internalType": "uint256",
          "name": "tokenId",
          "type": "uint256"
        }
      ],
      "name": "getLitings",
      "outputs": [
        {
          "components": [
            {
              "internalType": "uint256",
              "name": "price",
              "type": "uint256"
            },
            {
              "internalType": "address",
              "name": "seller",
              "type": "address"
            }
          ],
          "internalType": "struct NftMarketplace.Listing",
          "name": "",
          "type": "tuple"
        }
      ],
      "stateMutability": "view",
      "type": "function"
    },
    {
      "inputs": [
        {
          "internalType": "address",
          "name": "seller",
          "type": "address"
        }
      ],
      "name": "getProceeds",
      "outputs": [
        {
          "internalType": "uint256",
          "name": "",
          "type": "uint256"
        }
      ],
      "stateMutability": "view",
      "type": "function"
    },
    {
      "inputs": [
        {
          "internalType": "address",
          "name": "NFTAddress",
          "type": "address"
        },
        {
          "internalType": "uint256",
          "name": "tokenId",
          "type": "uint256"
        },
        {
          "internalType": "uint256",
          "name": "price",
          "type": "uint256"
        }
      ],
      "name": "listItem",
      "outputs": [],
      "stateMutability": "nonpayable",
      "type": "function"
    },
    {
      "inputs": [
        {
          "internalType": "address",
          "name": "NFTaddress",
          "type": "address"
        },
        {
          "internalType": "uint256",
          "name": "tokenId",
          "type": "uint256"
        },
        {
          "internalType": "uint256",
          "name": "newItemPrice",
          "type": "uint256"
        }
      ],
      "name": "updateListing",
      "outputs": [],
      "stateMutability": "nonpayable",
      "type": "function"
    },
    {
      "inputs": [],
      "name": "withdrawProceeds",
      "outputs": [],
      "stateMutability": "nonpayable",
      "type": "function"
    }
  ],
  "bytecode": "0x608060405234801561001057600080fd5b50600160008190555061172c806100286000396000f3fe6080604052600436106100705760003560e01c80639f37092a1161004e5780639f37092a146100f2578063b2ddee061461010e578063e0a52cb514610137578063f772adf11461017457610070565b806330cfeda91461007557806389bfd38f146100b25780639038e693146100db575b600080fd5b34801561008157600080fd5b5061009c60048036038101906100979190611337565b61019d565b6040516100a9919061137d565b60405180910390f35b3480156100be57600080fd5b506100d960048036038101906100d491906113c4565b6101e6565b005b3480156100e757600080fd5b506100f061063f565b005b61010c60048036038101906101079190611417565b6107a9565b005b34801561011a57600080fd5b5061013560048036038101906101309190611417565b610bd3565b005b34801561014357600080fd5b5061015e60048036038101906101599190611417565b610ebd565b60405161016b91906114a4565b60405180910390f35b34801561018057600080fd5b5061019b600480360381019061019691906113c4565b610f88565b005b6000600260008373ffffffffffffffffffffffffffffffffffffffff1673ffffffffffffffffffffffffffffffffffffffff168152602001908152602001600020549050919050565b82826000600160008473ffffffffffffffffffffffffffffffffffffffff1673ffffffffffffffffffffffffffffffffffffffff1681526020019081526020016000206000838152602001908152602001600020604051806040016040529081600082015481526020016001820160009054906101000a900473ffffffffffffffffffffffffffffffffffffffff1673ffffffffffffffffffffffffffffffffffffffff1673ffffffffffffffffffffffffffffffffffffffff168152505090506000816000015111156102f35782826040517f0b4afe1f0000000000000000000000000000000000000000000000000000000081526004016102ea9291906114ce565b60405180910390fd5b858533600083905060008173ffffffffffffffffffffffffffffffffffffffff16636352211e856040518263ffffffff1660e01b8152600401610336919061137d565b602060405180830381865afa158015610353573d6000803e3d6000fd5b505050506040513d601f19601f82011682018060405250810190610377919061150c565b90508073ffffffffffffffffffffffffffffffffffffffff168373ffffffffffffffffffffffffffffffffffffffff16146103de576040517f5f5dce6f00000000000000000000000000000000000000000000000000000000815260040160405180910390fd5b60008911610418576040517f5cfb724300000000000000000000000000000000000000000000000000000000815260040160405180910390fd5b60008b90503073ffffffffffffffffffffffffffffffffffffffff168173ffffffffffffffffffffffffffffffffffffffff1663081812fc8d6040518263ffffffff1660e01b815260040161046d919061137d565b602060405180830381865afa15801561048a573d6000803e3d6000fd5b505050506040513d601f19601f820116820180604052508101906104ae919061150c565b73ffffffffffffffffffffffffffffffffffffffff16146104fb576040517f0342b49400000000000000000000000000000000000000000000000000000000815260040160405180910390fd5b60405180604001604052808b81526020013373ffffffffffffffffffffffffffffffffffffffff16815250600160008e73ffffffffffffffffffffffffffffffffffffffff1673ffffffffffffffffffffffffffffffffffffffff16815260200190815260200160002060008d81526020019081526020016000206000820151816000015560208201518160010160006101000a81548173ffffffffffffffffffffffffffffffffffffffff021916908373ffffffffffffffffffffffffffffffffffffffff1602179055509050508b73ffffffffffffffffffffffffffffffffffffffff163373ffffffffffffffffffffffffffffffffffffffff167fd547e933094f12a9159076970143ebe73234e64480317844b0dcb36117116de48d8d604051610629929190611539565b60405180910390a3505050505050505050505050565b6000600260003373ffffffffffffffffffffffffffffffffffffffff1673ffffffffffffffffffffffffffffffffffffffff168152602001908152602001600020549050600081116106bd576040517fe04c0cce00000000000000000000000000000000000000000000000000000000815260040160405180910390fd5b6000600260003373ffffffffffffffffffffffffffffffffffffffff1673ffffffffffffffffffffffffffffffffffffffff1681526020019081526020016000208190555060003373ffffffffffffffffffffffffffffffffffffffff168260405161072890611593565b60006040518083038185875af1925050503d8060008114610765576040519150601f19603f3d011682016040523d82523d6000602084013e61076a565b606091505b50509050806107a5576040517f5b1b55f400000000000000000000000000000000000000000000000000000000815260040160405180910390fd5b5050565b81816000600160008473ffffffffffffffffffffffffffffffffffffffff1673ffffffffffffffffffffffffffffffffffffffff1681526020019081526020016000206000838152602001908152602001600020604051806040016040529081600082015481526020016001820160009054906101000a900473ffffffffffffffffffffffffffffffffffffffff1673ffffffffffffffffffffffffffffffffffffffff1673ffffffffffffffffffffffffffffffffffffffff1681525050905060008160000151116108b55782826040517fa15413570000000000000000000000000000000000000000000000000000000081526004016108ac9291906114ce565b60405180910390fd5b6108bd61124b565b6000600160008773ffffffffffffffffffffffffffffffffffffffff1673ffffffffffffffffffffffffffffffffffffffff1681526020019081526020016000206000868152602001908152602001600020604051806040016040529081600082015481526020016001820160009054906101000a900473ffffffffffffffffffffffffffffffffffffffff1673ffffffffffffffffffffffffffffffffffffffff1673ffffffffffffffffffffffffffffffffffffffff1681525050905080600001513410156109cd57858582600001516040517f65f706f50000000000000000000000000000000000000000000000000000000081526004016109c4939291906115a8565b60405180910390fd5b3460026000836020015173ffffffffffffffffffffffffffffffffffffffff1673ffffffffffffffffffffffffffffffffffffffff16815260200190815260200160002054610a1c919061160e565b60026000836020015173ffffffffffffffffffffffffffffffffffffffff1673ffffffffffffffffffffffffffffffffffffffff16815260200190815260200160002081905550600160008773ffffffffffffffffffffffffffffffffffffffff1673ffffffffffffffffffffffffffffffffffffffff16815260200190815260200160002060008681526020019081526020016000206000808201600090556001820160006101000a81549073ffffffffffffffffffffffffffffffffffffffff021916905550508573ffffffffffffffffffffffffffffffffffffffff166342842e0e826020015133886040518463ffffffff1660e01b8152600401610b2693929190611642565b600060405180830381600087803b158015610b4057600080fd5b505af1158015610b54573d6000803e3d6000fd5b505050508573ffffffffffffffffffffffffffffffffffffffff163373ffffffffffffffffffffffffffffffffffffffff167f263223b1dd81e51054a4e6f791d45a4a1ddb4aadcd93a2dfd892615c3fdac187878460000151604051610bbb929190611539565b60405180910390a350610bcc61129a565b5050505050565b81816000600160008473ffffffffffffffffffffffffffffffffffffffff1673ffffffffffffffffffffffffffffffffffffffff1681526020019081526020016000206000838152602001908152602001600020604051806040016040529081600082015481526020016001820160009054906101000a900473ffffffffffffffffffffffffffffffffffffffff1673ffffffffffffffffffffffffffffffffffffffff1673ffffffffffffffffffffffffffffffffffffffff168152505090506000816000015111610cdf5782826040517fa1541357000000000000000000000000000000000000000000000000000000008152600401610cd69291906114ce565b60405180910390fd5b848433600083905060008173ffffffffffffffffffffffffffffffffffffffff16636352211e856040518263ffffffff1660e01b8152600401610d22919061137d565b602060405180830381865afa158015610d3f573d6000803e3d6000fd5b505050506040513d601f19601f82011682018060405250810190610d63919061150c565b90508073ffffffffffffffffffffffffffffffffffffffff168373ffffffffffffffffffffffffffffffffffffffff1614610dca576040517f5f5dce6f00000000000000000000000000000000000000000000000000000000815260040160405180910390fd5b600160008b73ffffffffffffffffffffffffffffffffffffffff1673ffffffffffffffffffffffffffffffffffffffff16815260200190815260200160002060008a81526020019081526020016000206000808201600090556001820160006101000a81549073ffffffffffffffffffffffffffffffffffffffff021916905550508973ffffffffffffffffffffffffffffffffffffffff163373ffffffffffffffffffffffffffffffffffffffff167f9ba1a3cb55ce8d63d072a886f94d2a744f50cddf82128e897d0661f5ec6231588b604051610ea9919061137d565b60405180910390a350505050505050505050565b610ec56112a4565b600160008473ffffffffffffffffffffffffffffffffffffffff1673ffffffffffffffffffffffffffffffffffffffff1681526020019081526020016000206000838152602001908152602001600020604051806040016040529081600082015481526020016001820160009054906101000a900473ffffffffffffffffffffffffffffffffffffffff1673ffffffffffffffffffffffffffffffffffffffff1673ffffffffffffffffffffffffffffffffffffffff1681525050905092915050565b82826000600160008473ffffffffffffffffffffffffffffffffffffffff1673ffffffffffffffffffffffffffffffffffffffff1681526020019081526020016000206000838152602001908152602001600020604051806040016040529081600082015481526020016001820160009054906101000a900473ffffffffffffffffffffffffffffffffffffffff1673ffffffffffffffffffffffffffffffffffffffff1673ffffffffffffffffffffffffffffffffffffffff1681525050905060008160000151116110945782826040517fa154135700000000000000000000000000000000000000000000000000000000815260040161108b9291906114ce565b60405180910390fd5b858533600083905060008173ffffffffffffffffffffffffffffffffffffffff16636352211e856040518263ffffffff1660e01b81526004016110d7919061137d565b602060405180830381865afa1580156110f4573d6000803e3d6000fd5b505050506040513d601f19601f82011682018060405250810190611118919061150c565b90508073ffffffffffffffffffffffffffffffffffffffff168373ffffffffffffffffffffffffffffffffffffffff161461117f576040517f5f5dce6f00000000000000000000000000000000000000000000000000000000815260040160405180910390fd5b88600160008d73ffffffffffffffffffffffffffffffffffffffff1673ffffffffffffffffffffffffffffffffffffffff16815260200190815260200160002060008c8152602001908152602001600020600001819055508a73ffffffffffffffffffffffffffffffffffffffff163373ffffffffffffffffffffffffffffffffffffffff167fd547e933094f12a9159076970143ebe73234e64480317844b0dcb36117116de48c8c604051611236929190611539565b60405180910390a35050505050505050505050565b600260005403611290576040517f08c379a0000000000000000000000000000000000000000000000000000000008152600401611287906116d6565b60405180910390fd5b6002600081905550565b6001600081905550565b604051806040016040528060008152602001600073ffffffffffffffffffffffffffffffffffffffff1681525090565b600080fd5b600073ffffffffffffffffffffffffffffffffffffffff82169050919050565b6000611304826112d9565b9050919050565b611314816112f9565b811461131f57600080fd5b50565b6000813590506113318161130b565b92915050565b60006020828403121561134d5761134c6112d4565b5b600061135b84828501611322565b91505092915050565b6000819050919050565b61137781611364565b82525050565b6000602082019050611392600083018461136e565b92915050565b6113a181611364565b81146113ac57600080fd5b50565b6000813590506113be81611398565b92915050565b6000806000606084860312156113dd576113dc6112d4565b5b60006113eb86828701611322565b93505060206113fc868287016113af565b925050604061140d868287016113af565b9150509250925092565b6000806040838503121561142e5761142d6112d4565b5b600061143c85828601611322565b925050602061144d858286016113af565b9150509250929050565b61146081611364565b82525050565b61146f816112f9565b82525050565b60408201600082015161148b6000850182611457565b50602082015161149e6020850182611466565b50505050565b60006040820190506114b96000830184611475565b92915050565b6114c8816112f9565b82525050565b60006040820190506114e360008301856114bf565b6114f0602083018461136e565b9392505050565b6000815190506115068161130b565b92915050565b600060208284031215611522576115216112d4565b5b6000611530848285016114f7565b91505092915050565b600060408201905061154e600083018561136e565b61155b602083018461136e565b9392505050565b600081905092915050565b50565b600061157d600083611562565b91506115888261156d565b600082019050919050565b600061159e82611570565b9150819050919050565b60006060820190506115bd60008301866114bf565b6115ca602083018561136e565b6115d7604083018461136e565b949350505050565b7f4e487b7100000000000000000000000000000000000000000000000000000000600052601160045260246000fd5b600061161982611364565b915061162483611364565b925082820190508082111561163c5761163b6115df565b5b92915050565b600060608201905061165760008301866114bf565b61166460208301856114bf565b611671604083018461136e565b949350505050565b600082825260208201905092915050565b7f5265656e7472616e637947756172643a207265656e7472616e742063616c6c00600082015250565b60006116c0601f83611679565b91506116cb8261168a565b602082019050919050565b600060208201905081810360008301526116ef816116b3565b905091905056fea264697066735822122071d6edb12fc78ac6d8db007a34a8619c705925b7101b80e536db1683ffc7864664736f6c63430008120033",
  "linkReferences": {},
  "deployedLinkReferences": {}
}